:100000000C947C000C94A4000C94A4000C9460024A
:100010000C948D020C94BA020C94A4000C94541EFF
:100020000C94A4000C94A4000C94A4000C94A50BB4
:100030000C94A4000C94A4000C94A4000C94A400B0
:100040000C94F1170C94A4000C94311B0C94631BBA
:100050000C94A4000C94A4000C94A4000C94A40090
:100060000C94690F0C94A400C403D203B503DF03FE
:10007000F6033304250433042F042B041B042D043E
:10008000E415EA15F415021604160A1614162216BB
:1000900034163616000000080002010000030407B1
:1000A0000000000000000000010204081020408051
:1000B00001020408102001020408102004040404B2
:1000C0000404040402020202020203030303030302
:1000D0000000000023002600290000000000250089
:1000E00028002B0000000000240027002A00020046
:1000F0006405870EF313931B11241FBECFEFD8E0C6
:10010000DEBFCDBF12E0A0E0B1E0E8E6F6E402C059
:1001100005900D92A23FB107D9F725E0A2EFB2E01A
:1001200001C01D92A23EB207E1F710E0C8EFD0E097
:1001300004C02297FE010E945C20C03FD107C9F78E
:100140000E94D71B0C9432230C940000833028F4B7
:10015000E82FF0E0E652FC4F60830895833008F00A
:1001600062C0482F440F440F440F485F453108F0E8
:1001700044E1582F550F550F550F90E071E054177B
:10018000E8F42EEF250F2231B0F4E52FF0E0DF0187
:10019000AD53BC4F2C91223070F4972BEE0FFF1F04
:1001A000E856FC4F21E030E0A72FA62311F420E011
:1001B00030E031832083770F5F5FE1CF81110AC088
:1001C0009C7FF8942BB1892F809582239623892BCD
:1001D0008BB928C08130C9F46923F89425B1892FDF
:1001E0008F7380958223262F2F73822B85B988B138
:1001F00062956695669563709295969596959370BF
:1002000090959823692B68B90DC09F70F89428B118
:10021000892F880F880F809582236923660F660FC8
:10022000862B88B9789408958630C0F44091DD0318
:100230005091DE0321E030E002C0220F331F8A9587
:10024000E2F7672B29F4209530952423352302C04B
:10025000242B352B3093DE032093DD0308950F9379
:100260001F93CF93DF93EB01843170F5082F10E0DB
:10027000F801ED53FC4F9081933091F0943021F5CB
:1002800082508C30D0F4980122503109C901880F76
:10029000991F820F931F8F5C9C4F0E94420D0DC0CF
:1002A000833041F09BEF980F923020F097EF980F3A
:1002B000933018F4BE010E94F518F801EE0FFF1FED
:1002C000E856FC4FD183C083DF91CF911F910F91EE
:1002D0000895CF93DF93DC01FB0122835183408398
:1002E0001296CD91DC91139788819381892B888315
:1002F00082818D7F813041F415968C911597938181
:10030000892B15968C93159782818150823040F409
:1003100016968C9116979381892B16968C93169727
:100320008091680014969C91892B80936800DF91DE
:10033000CF910895CF92DF92FF920F931F93CF93A7
:10034000DF9300D01F92CDB7DEB76C01E62FF0E04F
:10035000E855FF4FF490FC0180859185009779F076
:100360008C01FC0183818F1106C0B801C6010E9477
:10037000690180E02FC0F80185819681EFCF87E089
:1003800090E02B8349835A830E94E61BDC012B817A
:1003900049815A81009721F4109202008FEF1AC010
:1003A00012962C93129716961C921E9215971396DE
:1003B000FC921397F60180859185892B19F4B187FA
:1003C000A08703C0F801B683A583BD01C6010E94C2
:1003D000690181E00F900F900F90DF91CF911F91F5
:1003E0000F91FF90DF90CF900895242FE82FF0E039
:1003F000E454FF4FE491EE23D9F061157105C1F08B
:10040000F0E03297E330F10540F4EE0FFF1FEF53B9
:10041000FD4F0190F081E02D02C0E0E0F0E0A0810E
:10042000B1819C919783AB01682FCF010C949A0105
:100430008FEF0895FF920F931F93CF93DF93EC01FB
:100440008091FD039F812D813E81F82EF094F3224F
:100450002823F22A9827F9228F8308851985011508
:100460001105D9F0D80113969C918F2D892389F01D
:100470008091FD03892391E009F490E0F8019483D1
:1004800080819181DC01ED91FC910190F081E02D62
:100490000995F80105811681E2CF8BB39C818923F0
:1004A00049F09BB3982B9BBBE881F98180818093B5
:1004B000FD03C6CFDF91CF911F910F91FF9008955B
:1004C0001F920F920FB60F9211242F933F934F93C9
:1004D0005F936F937F938F939F93AF93BF93EF93AC
:1004E000FF93E091F303F091F40380818093FD0387
:1004F00083EF93E00E941A02FF91EF91BF91AF91B9
:100500009F918F917F916F915F914F913F912F912B
:100510000F900FBE0F901F9018951F920F920FB65D
:100520000F9211242F933F934F935F936F937F9379
:100530008F939F93AF93BF93EF93FF93E091E90362
:10054000F091EA0380818093FD0389EE93E00E949D
:100550001A02FF91EF91BF91AF919F918F917F917F
:100560006F915F914F913F912F910F900FBE0F9020
:100570001F9018951F920F920FB60F9211242F9370
:100580003F934F935F936F937F938F939F93AF931B
:10059000BF93EF93FF93E091DF03F091E00380813D
:1005A0008093FD038FED93E00E941A02FF91EF917B
:1005B000BF91AF919F918F917F916F915F914F917B
:1005C0003F912F910F900FBE0F901F9018951F9382
:1005D000CF93DF93162FC82FD0E0FE01E054FC4FDD
:1005E00090811923C952DC4F411103C098819117A2
:1005F00041F0412F50E0682F84EE94E00E94FE11FC
:100600001883DF91CF911F9108958091DA03882399
:1006100049F069B18091C00368236C7F40E080E0BD
:100620000E94E7028091DB03882379F063B186B1F1
:1006300020E4829FC00111246F73682B8091C10355
:10064000682340E081E00E94E7028091DC03882378
:1006500059F066B16C73669566958091C203682304
:1006600040E082E00C94E7020895109257038FEF68
:1006700080930B0108958F929F92BF92CF92DF9249
:10068000EF92FF920F931F93CF93DF9300D0CDB7DC
:10069000DEB7B82E8B01C82ED12CC6018D539C4FCE
:1006A0004C01FC018081863049F4809157038823F6
:1006B00029F06630710511F00E9435034EEF4B0DA5
:1006C0004C30A0F40430110589F0C60102977C017A
:1006D000EE0CFF1CE80EF91EC7018F5C9C4F7C01DD
:1006E0004A830E94A70D4A818111D0C092EF9B0DD1
:1006F000963070F461E070E00230110511F060E0B6
:1007000070E0892F4A8399830E94140199814A815C
:100710004231D8F4EB2DE695E695E6958B2D877062
:10072000F0E0E054FC4F21E030E0082E01C0220F41
:100730000A94EAF70115110521F48081822B808348
:1007400004C02095808128232083F601EE0FFF1F2F
:10075000E856FC4F118210820C30110508F083C05E
:10076000F801EC5CFF4F0C945A20963008F094C0CE
:10077000423140F460E08B2D0E947D1960E08B2DAA
:100780000E94B61982E06CC0423108F085C060E07A
:100790008B2D0E947D1960E08B2D0E94B619F4010B
:1007A00010827AC0423108F077C060E08B2D0E9441
:1007B000B61961E08B2D0E947D1981E051C0F3E0F4
:1007C000BF1649F08BEF8B0D823028F087EF8B0D31
:1007D000833008F061C061E08B2D0E947D1960E0DC
:1007E00070E08B2D0E94F51883E03AC04C3008F081
:1007F00053C084E0F4018083C60102978C01000F8E
:10080000111F080F191F0F5C1C4FC8010E94A70D74
:10081000811142C0B601C8010F900F90DF91CF91B6
:100820001F910F91FF90EF90DF90CF90BF909F901E
:100830008F900C94FB0C60E08B2D0E947D1961E081
:100840008B2D0E94B6198AE00BC08EEE8B0D823084
:1008500018F586E005C089E003C08BE001C088E0A0
:10086000F401808319C060E171E084EE94E00F90A0
:100870000F90DF91CF911F910F91FF90EF90DF903C
:10088000CF90BF909F908F900C947412C7014A83B1
:100890000E94010D4A812ACF0F900F90DF91CF91D6
:1008A0001F910F91FF90EF90DF90CF90BF909F909E
:1008B0008F900895CF93C0E08EEE8C0F823028F495
:1008C00066E070E08C2F0E943B03CF5FC431A1F73C
:1008D00081E08093570384E294E0CF910C944D0E15
:1008E000CF938091570381110E9435031092DA0350
:1008F0001092C0031092D7031092DB031092C10331
:100900001092D8031092DC031092C2031092D90304
:10091000C0E082EF8C0F863018F462E070E00AC00D
:100920008EEF8C0F823120F48C2F0E943F1E05C069
:1009300061E070E08C2F0E943B03CF5FC43149F728
:100940001092240310922303ADE1B3E0EFE0F3E053
:100950002FE72D9380819181892B11F011821082D4
:10096000329683E0A332B807A1F71092DE0310920B
:10097000DD031092090310920803CF91089523E03C
:1009800042E061E271E084EE94E00E9438114FE2AF
:1009900051E060EE84EE94E00E9482124EEA50E054
:1009A00060E984EE94E00E94821244E151E060EC40
:1009B00084EE94E00E94821246EA50E060ED84EEFC
:1009C00094E00E9482124BE353E064EF84EE94E0E3
:1009D0000E9482124AE256E060EF84EE94E00E94A8
:1009E000A51240E754E06FEF84EE94E00E949F125E
:1009F00010922403109223031092260310922503D1
:100A0000AEE1B3E0E1E1F3E02FE72D938081918146
:100A1000892B11F011821082329683E0A332B8073D
:100A2000A1F760910C0170910D0188E290E00E94A5
:100A30000520709328036093270340E051EE60E0A7
:100A400070E084EE94E00E94DC130C9470040F9329
:100A50001F93CF93DF93CDB7DEB7C654D1090FB63E
:100A6000F894DEBF0FBECDBF8C012AE0CE018F5BB4
:100A70009F4F0E947D1F20E030E040E450E0BE0127
:100A80006F5F7F4FCE018F5B9F4F0E94AA1FB801FF
:100A900084EE94E00E947412BE016F5F7F4F84EE7B
:100AA00094E00E947412CE018F5B9F4F0E94F71E4C
:100AB000CA5BDF4F0FB6F894DEBF0FBECDBFDF912C
:100AC000CF911F910F910895CF93DF93E4EDF0E064
:100AD000859194919093F4038093F3038BE690E0D7
:100AE0009093F6038093F50381E08093F7031092CF
:100AF000F8031092F9031092FC031092FB03E6ED49
:100B0000F0E0859194919093EA038093E9038CE659
:100B100090E09093EC038093EB0382E08093ED03ED
:100B20001092EE031092EF031092F2031092F10371
:100B3000E8EDF0E0859194919093E0038093DF03DA
:100B40008DE690E09093E2038093E10384E080934C
:100B5000E3031092E4031092E5031092E80310926D
:100B6000E703C1E3D3E0CE010E94610C239683E04A
:100B7000C535D807C1F7DF91CF910895DF92EF9285
:100B8000FF920F931F93CF93DF93F82EEB01D42E98
:100B90006F3F8FEF7807B9F06F2D84E294E00E94E9
:100BA000670E6C2F84E294E00E940E0E84E294E0C3
:100BB0000E94840E8091550390915603009729F06E
:100BC0000E94921802C0C0E0D0E04D2D6F2D84E24B
:100BD00094E00E94640E0D2D10E084E294E00E94E7
:100BE000B60D08171907B1F4F0925803C0935903D2
:100BF000CAE5EC2EC3E0FC2EC0E0D0E0C017D10760
:100C0000CCF484E294E00E94BE0DF70181937F0151
:100C10002196F4CF84E294E00E94B60D80179107EC
:100C20001CF461E371E002C069E571E084EE94E0D8
:100C30000E94741242E04D0D28E533E067E784EE30
:100C400094E0DF91CF911F910F91FF90EF90DF9093
:100C50000C942C128F929F92AF92BF92CF92DF9200
:100C6000EF92FF920F931F93CF93DF93162FEA011A
:100C70008D3609F40BC2E8F4803609F4BEC238F4AC
:100C8000803209F467C28F3509F480C2E0C3893627
:100C900009F448C28B3609F0DAC360EF84EE94E0C1
:100CA0000E9478126CE684EE94E00E947812CEEFF7
:100CB000D3C1823709F4EBC238F48F3609F45EC130
:100CC000803709F4F8C0C3C3883709F4D4C08A3721
:100CD00009F433C1863709F0BAC38981982F987116
:100CE00085FF03C060E871E0A2C388819830B1F14C
:100CF00048F49111ACC3682F84E294E00E94670E1F
:100D000002E007C0903109F44EC0983109F46FC079
:100D10009EC3011778F4FE01E00FF11D818160810F
:100D200020E8829F6019112484E294E00E940E0E54
:100D30000E5FEFCF84E294E00E94840E86E490E0A0
:100D4000DF91CF911F910F91FF90EF90DF90CF90A7
:100D5000BF90AF909F908F900C9492189B816A8166
:100D6000163061F42D814C8130E8239F4019112405
:100D7000E0E89E9F6019112470E007C0462FF0E85C
:100D80009F9F401911246FEF7FEFDF91CF911F914B
:100D90000F91FF90EF90DF90CF90BF90AF909F901A
:100DA0008F900C94BE0520910B0127301CF06CEA4B
:100DB00071E03DC32F5F20930B01332727FD309552
:100DC000F901EE0FFF1FE20FF31FE858FC4F80837D
:100DD0009B818A8120E8929F8019112481839D81C3
:100DE0008C8130E8939F80191124828330C36091F5
:100DF0000B01161634F470E0462F552747FD509529
:100E00000FC08FEF80930B0122C3F901EE0FFF1F7C
:100E1000E20FF31FE858FC4F8083811123C07F5FEE
:100E2000272F30E04217530784F770E01BC078305B
:100E3000C0F49C012F5F3F4FD901AA0FBB1FA20F27
:100E4000B31FA858BC4F2C91FC01EE0FFF1FE80FF9
:100E5000F91FE858FC4F20838C91818312968C9166
:100E600082837F5F872F90E04817590704F761500E
:100E700060930B01ECC22881898140E8849FC00106
:100E80001124820F911D009721F0909356038093B7
:100E90005503809157038111DAC2DF91CF911F91E1
:100EA0000F91FF90EF90DF90CF90BF90AF909F9009
:100EB0008F900C945A04653008F4C9C2F880E98018
:100EC000DA80CB80BC808EEF8F0D8C3008F0BFC2F3
:100ED0000F2D10E0B80162507109EB01CC0FDD1F3E
:100EE000C60FD71FCF5CDC4FCE010E94A70D882311
:100EF00019F0CE010E94010D80E8B89E90011124E6
:100F00002C0D311D90E8D99EA00111244E0D511DCC
:100F1000B801CE010E947D0C64E070E08F2DDF915E
:100F2000CF911F910F91FF90EF90DF90CF90BF90E6
:100F3000AF909F908F900C943B03623008F487C26F
:100F400028818981E0E88E9FC0011124820F911DC4
:100F50008A30910514F48AE090E090930D0180931B
:100F60000C0160910C0170910D0188E290E00E94EB
:100F70000520709328036093270369C2623008F448
:100F800066C2698170E0123091F08A81F0E88F9F2B
:100F9000C0011124682B792B133049F08B8190E02C
:100FA00090E4899F902D88271124682B792B8881C4
:100FB000DF91CF911F910F91FF90EF90DF90CF9035
:100FC000BF90AF909F908F900C942F01C13009F08B
:100FD00052C063E084EE94E00E94781268E084EEF0
:100FE00094E00E947812CC3050F464E084EE94E0F7
:100FF0000E9478126EE084EE94E00E94781280EFF6
:101000008C0F823050F466E084EE94E00E947812F7
:1010100061E084EE94E00E9478126FE784EE94E041
:101020000E947812CF5FC23109F4EBC1C231A0F443
:1010300060E084EE94E00E94781261E084EE94E037
:101040000E94781261E084EE94E00E94781261E0E0
:1010500084EE94E00E94781284EF8C0F863008F0C2
:10106000B5CF62E084EE94E00E9478126AE084EEEC
:1010700094E00E9478128DEF8C0F823008F4A9CF93
:1010800089EF8C0F833008F0AECFA3CF662309F42D
:10109000DEC1C88160EF84EE94E00E9478126EE6B3
:1010A00084EE94E00E9478126C2F84EE94E00E940B
:1010B0007812C43108F0A5C1D0E0FE01ED53FC4F19
:1010C000608184EE94E00E947812CC0FDD1F8E01C7
:1010D00008561C4FF80160816F7784EE94E00E94FF
:1010E0007812F80160817181CB018078892B49F0F9
:1010F000660F672F661F770B6F7784EE94E00E9470
:101100007812C856DC4F68817981CB018827907CA2
:10111000892B09F476C1770F660B770F762F661F40
:101120006F776BC160EF84EE94E00E9478126AE6FC
:1011300084EE94E00E947812C2EFC63010F06FE7A0
:1011400001C06C2F84EE94E00E947812CF5FC6300D
:10115000A1F757C1488140932E03298120932D0385
:101160008091000381110EC080EE92E09093F30213
:101170008093F20261E682EF92E00E94431781E0E1
:101180008093000381E08093290361C19881898164
:10119000911122C09C812D81F0E82F9F9001112494
:1011A000290F311D442737FD4095542F9A816B81BB
:1011B000E0E86E9FB0011124690F711DDF91CF919E
:1011C0001F910F91FF90EF90DF90CF90BF90AF9065
:1011D0009F908F900C94101C913009F038C1DF91D2
:1011E000CF911F910F91FF90EF90DF90CF90BF9024
:1011F000AF909F908F900C943F1E209123033091CD
:101200002403263031050CF03FC0888180930E0303
:10121000998190930D039A81913208F491E2909311
:101220000A019B81CC81F0E8CF9FE0011124C90F16
:10123000D11DF901E35EFC4F80836BE070E00E94FA
:101240003B036BE070E080910D030E943B0382E161
:1012500090E00E94E61B8C019E0140910D0360917D
:101260000E030E94F7138091230390912403FC0145
:10127000EE0FFF1FE15FFC4F1183008301969093F7
:10128000240380932303E3C06DEB71E0D0C0888119
:10129000811148C08981CA8020E8C29E6001112462
:1012A000C80ED11CAB80B12C8C80912C653059F4C8
:1012B0008CE190E00E94E61BEC019401A501B601CF
:1012C0000E94EC1410C0673099F40D8110E0EE809C
:1012D000F12C8CE190E00E94E61BEC019401A50149
:1012E000B6010E941415D0930903C0930803AFC040
:1012F0006AEF71E084EE94E00E947412412F50E096
:1013000060E070E08AE292E0DF91CF911F910F914F
:10131000FF90EF90DF90CF90BF90AF909F908F9015
:101320000C942705813009F048C04A8150E060E004
:1013300070E017E0440F551F661F771F1A95D1F70D
:101340008B8190E0A0E0B0E00EE0880F991FAA1F0B
:10135000BB1F0A95D1F7482B592B6A2B7B2B898110
:10136000482B8C810D8130E8039F80011124080FE8
:10137000111DCE8180910803909109030097D1F04F
:101380000E944C15C11103C0119501951109B801B6
:101390008091080390910903DF91CF911F910F91E4
:1013A000FF90EF90DF90CF90BF90AF909F908F9085
:1013B0000C94531662E372E03AC08230B1F580912A
:1013C000080390910903009769F10E94DC16EC0173
:1013D00060EF84EE94E00E94781262E784EE94E07D
:1013E0000E9478126C2F6F7784EE94E00E9478123E
:1013F000BE01660F672F661F770B84EE94E00E9494
:10140000781267EF84EE94E0DF91CF911F910F91F6
:10141000FF90EF90DF90CF90BF90AF909F908F9014
:101420000C9478126EE572E002C063E972E084EE1B
:1014300094E0DF91CF911F910F91FF90EF90DF909B
:10144000CF90BF90AF909F908F900C947412DF91CB
:10145000CF911F910F91FF90EF90DF90CF90BF90B1
:10146000AF909F908F9008958F929F92AF92BF926E
:10147000CF92DF92EF92FF920F931F93CF93DF9360
:101480000E94050384EE94E00E948A11892B29F0C2
:1014900084EE94E00E94C812F5CF0E943B1860933E
:1014A0009403709395038093960390939703C09051
:1014B0009003D0909103E0909203F09093034091B9
:1014C0000C0150910D014A01AA2497FCA094BA2C5A
:1014D0008B019C010C191D092E093F0980169106EC
:1014E000A206B30608F024C1D501C4018C0D9D1DD0
:1014F000AE1DBF1D8093900390939103A093920320
:10150000B093930380912503909126039C012F5F54
:101510003F4F3093260320932503209127033091DA
:101520002803281739070CF064C010922603109284
:1015300025038091230390912403892B09F459C03A
:10154000E0911B03F0911C03EE0FFF1FE15FFC4FC6
:10155000808191810E94BD1469E370E00E94F11FB7
:10156000CB0140911B0350911C0340930C039A0143
:101570002F5F3F4F30931C0320931B0320912303C5
:1015800030912403215031094217530724F010925F
:101590001C0310921B036F7760930A03880F892F37
:1015A000881F990B80930B0360EF84EE94E00E94F8
:1015B000781261E684EE94E00E947812E0910C03C8
:1015C000F0E0E35EFC4F608184EE94E00E947812CC
:1015D00060910A0384EE94E00E94781260910B03FC
:1015E00084EE94E00E94781267EF84EE94E00E940B
:1015F0007812C3ECD3E012EF1630C0F48881823049
:10160000A9F42091DD033091DE03012E02C035954F
:1016100027950A94E2F720FF09C0812F0E94D8186D
:10162000AC01612F84EE94E00E94E5111F5F2196CA
:10163000163011F780910B0187FF06C080912903B6
:10164000882309F475C01AC0C0E08C2F90E0209167
:101650000B01332727FD3095281739077CF3FC0150
:10166000EE0FFF1FE80FF91FE858FC4F618170E093
:10167000428180810E94BE05CF5FE7CF1092300388
:1016800010922F0310922A030E94C4170097A1F012
:101690000E94E41780932A0320912B0330912C039E
:1016A000181614F0882341F0280F311D87FD3A9554
:1016B00030932C0320932B0380912B0390912C03C8
:1016C000282F2F7720932F03880F892F881F990B9E
:1016D0008F778093300360EF84EE94E00E9478125D
:1016E00061E284EE94E00E94781260912E0384EE11
:1016F00094E00E94781260912F0384EE94E00E949F
:1017000078126091300384EE94E00E94781267EFC3
:1017100084EE94E0DF91CF911F910F91FF90EF90B5
:10172000DF90CF90BF90AF909F908F900C947812E5
:10173000DF91CF911F910F91FF90EF90DF90CF90AD
:10174000BF90AF909F908F9008951F920F920FB609
:101750000F9211242F933F934F935F936F937F9337
:101760008F939F93AF93BF93EF93FF938091FF036A
:1017700087FF05C010928500109284001AC0209146
:10178000FF03332727FD30958091FE0390E0281753
:1017900039077CF48091FF03992787FD9095FC0120
:1017A000EE0FFF1FE80FF91FE050FC4F808186FD10
:1017B00015C08091FF038F5F8093FF032091FF038B
:1017C000332727FD30958091FE0390E028173907D5
:1017D000BCF48091FF038C305CF112C08091FF0358
:1017E000992787FD9095FC01EE0FFF1FE80FF91F69
:1017F000E050FC4F808160E08F730E94B619D9CF12
:101800008091840090918500049680349C4918F45E
:1018100080E49CE905C08091840090918500049645
:1018200090938900809388008FEF8093FF0338C0E6
:1018300020918400309185008091FF03992787FDD6
:101840009095FC01EE0FFF1FE80FF91FE050FC4FD1
:1018500081819281820F931F9093890080938800E9
:101860008091FF03992787FD9095FC01EE0FFF1FE4
:10187000E80FF91FE050FC4F808186FF11C0809176
:10188000FF03992787FD9095FC01EE0FFF1FE80FDE
:10189000F91FE050FC4F808161E08F730E94B61900
:1018A000FF91EF91BF91AF919F918F917F916F9138
:1018B0005F914F913F912F910F900FBE0F901F900E
:1018C00018952091FE032C30A0F431E0320F3093B4
:1018D000FE03FC012083822F90E0FC01EE0FFF1F2E
:1018E000E80FF91FE050FC4F88EB9BE09283818367
:1018F00008952FEFFC0120830895DF92EF92FF926D
:101900000F931F93CF93DF93EC01D62E7A018901B9
:1019100088818C3008F066C061E08D2D0E947D19B1
:101920008881A82FB0E0FD01EE0FFF1FEA0FFB1F1B
:10193000E050FC4F2D2D2F739081907C922B908343
:1019400060E272E06E197F0977FF02C06D5F7F4F22
:101950007595679575956795698340E659E0401BD5
:10196000510B57FF02C04D5F5F4F559547955595F9
:1019700047954A836CE00E94E51F9CE0899FB00177
:10198000112420E030E0A901460F571FFA01EE0FA5
:10199000FF1FE40FF51FE050FC4F908196FD16C02D
:1019A0002F5F3F4F2C30310571F781110FC010921E
:1019B000800082E080938100109285001092840064
:1019C000B19A80916F00826080936F00888190E06F
:1019D000FC01EE0FFF1FE80FF91FE050FC4F808164
:1019E000806480838881DF91CF911F910F91FF9058
:1019F000EF90DF90089520E639E040E252E00C9449
:101A00007D0CFC01808190E0FC01EE0FFF1FE80FD0
:101A1000F91FE050FC4F80818F7B80830895FC018B
:101A200080818C3070F5918128E830E0291B3109E4
:101A300097FD3395220F331F220F331F6217730751
:101A40007CF0928128E532E0291B310997FD33951E
:101A5000220F331F220F331F621773070CF49B01F1
:101A600022503109220F331F4FB7F89490E0FC0148
:101A7000EE0FFF1FE80FF91FE050FC4F3283218368
:101A80004FBF08954F925F926F927F92AF92BF9235
:101A9000CF92DF92EF92FF920F931F93CF93DF933A
:101AA000EC01603282E078070CF040C077FD06C0A0
:101AB000653B71052CF064EB70E002C060E070E003
:101AC000898128E830E0281B310987FD3395220FF2
:101AD000331F220F331F5901CC24B7FCC094DC2CD8
:101AE000882777FD8095982F2A8148E552E0421B90
:101AF000510927FD5395440F551F440F551F2A01C7
:101B0000662457FC6094762C7F926F925F924F927E
:101B100014EBE12EF12C00E010E020E030E0A90110
:101B20000E94B01E0F900F900F900F90CE01DF918A
:101B3000CF911F910F91FF90EF90DF90CF90BF90CA
:101B4000AF907F906F905F904F900C940F0DFC01C1
:101B5000808190E0FC01EE0FFF1FE80FF91FE050BD
:101B6000FC4F808186FB882780F90895809154047A
:101B700090E020915504821B91090895209155040D
:101B800080915404281750F4E22FF0E0EA5AFB4FFA
:101B9000808190E02F5F2093550408958FEF9FEF91
:101BA0000895E091550480915404E81730F4F0E072
:101BB000EA5AFB4F808190E008958FEF9FEF0895E0
:101BC0000895CF92DF92EF92FF920F931F93CF93DE
:101BD000DF937C01CB018A0120913004222389F01C
:101BE000EB016B01C40ED51ECC15DD0569F06991C2
:101BF000D701ED91FC910190F081E02DC70109958D
:101C0000F3CF642F0E94400FC801DF91CF911F9145
:101C10000F91FF90EF90DF90CF900895CF93DF93D7
:101C20001F92CDB7DEB76983209130042223D1F013
:101C300020913104203240F021E030E0FC01338378
:101C4000228380E090E015C080913204E82FF0E01C
:101C5000ED5CFB4F998190838F5F8093320480937A
:101C6000310405C061E0CE0101960E94400F81E081
:101C700090E00F90DF91CF910895FC0113821282C2
:101C800048EE53E060E070E04483558366837783D9
:101C90008BEC92E09183808308951092550410920A
:101CA000540410923204109231040C948B0E862F3F
:101CB000413208F040E266E574E00E94A90E1092FD
:101CC000550480935404089521E00C94570E81E04C
:101CD00080933004609353041092320410923104C4
:101CE00008950F93062F21E04091310463E374E0DF
:101CF000809153040E94ED0E109232041092310430
:101D0000109230040F91089561E00C94710E84E2FA
:101D100094E00C943D0E1092E30481E08093E10482
:101D20001092E00461E082E10E94B61961E083E173
:101D30000E94B619E9EBF0E080818E7F808380817C
:101D40008D7F808388E48093B80085E48093BC0015
:101D50000895413208F03FC09091E3049111FCCF07
:101D600091E09093E3042093E1042FEF2093760415
:101D70001092BB04240F2093BA049093E204909134
:101D8000E204880F892B8093E2048091E004813083
:101D900041F41092E0048091E2048093BB0085EC52
:101DA00001C085EE8093BC008091E3048130E1F3B3
:101DB0008091BB04841710F44091BB042CEB34E0F9
:101DC000FB01D9018A2F821B841718F48D9181930E
:101DD000F9CF842F089580E008950F93413208F0E1
:101DE00046C09091E3049111FCCF92E09093E304FC
:101DF0000093E1049FEF909376041092BB0440930C
:101E0000BA04FB016CEB74E0DB019A2F961B94176C
:101E100018F491919D93F9CF1092E2049091E2040D
:101E2000880F892B8093E2048091E004813041F493
:101E30001092E0048091E2048093BB0085EC01C025
:101E400085EE8093BC00222321F08091E304823050
:101E5000E1F3809176048F3F61F0809176048032C7
:101E600051F080917604803341F483E007C081E033
:101E700005C080E003C082E001C084E00F910895B6
:101E8000613298F42091E304243089F4609398043B
:101E9000FC018AE994E0DC012A2F281B261718F49C
:101EA00021912D93F9CF80E0089581E0089582E09B
:101EB000089585ED8093BC008091BC0084FDFCCF2B
:101EC0001092E304089585EC8093BC001092E30423
:101ED00008951F920F920FB60F9211242F933F93E4
:101EE0004F935F936F937F938F939F93AF93BF9322
:101EF000EF93FF938091B900887F803609F49CC0EE
:101F000068F5883209F45BC090F4803109F454C05C
:101F100038F4882309F4F5C0883009F44DC0F5C0C1
:101F2000883109F44CC0803209F45DC0EEC08034C1
:101F300009F468C048F4803309F455C0883309F0C7
:101F4000E4C080937604A8C0803509F44FC088357A
:101F500009F45DC0883409F0D8C0D5C0883909F4C7
:101F6000C6C0A8F4883709F467C038F4883609F485
:101F700063C0803709F460C0C8C0883809F4B7C0AE
:101F8000803909F45FC0803809F0BFC05BC0803B76
:101F900009F485C038F4803A09F466C0883A09F437
:101FA0007EC0B3C0803C09F4A6C0883C09F4A3C03D
:101FB000883B09F489C0A9C08091E20410C09091C7
:101FC000BB048091BA04981770F5E091BB0481E0DE
:101FD0008E0F8093BB04F0E0E454FB4F808180932C
:101FE000BB0085EC85C0809376048DC0E091BB0476
:101FF00081E08E0F8093BB048091BB00F0E0E4543D
:10200000FB4F80839091BB048091BA046DC0E09136
:10201000BB0481E08E0F8093BB048091BB00F0E095
:10202000E454FB4F80838091E10481116CC081E016
:102030008093E00484EA60C083E08093E30410921C
:102040007704CFCF80917704803208F050C0E091C0
:10205000770481E08E0F809377048091BB00F0E0DD
:10206000E858FB4F8083BDCF80917704803230F4F5
:10207000E0917704F0E0E858FB4F10820E94590F7E
:102080006091770470E0E091DC04F091DD0488E772
:1020900094E00995109277040E94630F36C084E0A3
:1020A0008093E3041092990410929804E091DE0466
:1020B000F091DF04099580919804811105C081E0B9
:1020C0008093980410929A04E091990481E08E0F15
:1020D00080939904F0E0E656FB4F80818093BB002B
:1020E0009091990480919804981708F47ACF85E824
:1020F0008093BC000AC085EC8093BC001092E3047E
:1021000004C0109276040E94590FFF91EF91BF9185
:10211000AF919F918F917F916F915F914F913F917F
:102120002F910F900FBE0F901F9018950F931F9334
:10213000CF93DF93EC018B0188819981DC01ED91D4
:10214000FC916F770190F081E02D0995888199814C
:10215000DC01ED91FC91B801660F672F661F770BCC
:102160006F770190F081E02DDF91CF911F910F915A
:102170000994DC018D919C91DC01ED91FC91019021
:10218000F081E02D60EF0994DC018D919C91DC01E0
:10219000ED91FC910190F081E02D67EF0994CF93D0
:1021A000DF93EC0188819981DC01ED91FC91019034
:1021B000F081E02D69EF099588819981DC01ED912D
:1021C000FC910190F081E02D62E009958881998170
:1021D000DC01ED91FC910190F081E02D63E0DF9155
:1021E000CF9109941F93CF93DF93EC018A818823C9
:1021F000D9F1CE010E94B91088819981DC01ED915D
:10220000FC910190F081E02D69E709958881998121
:10221000DC01ED91FC91AB81BC810190F081E02D5E
:102220006C91099588819981DC01ED91FC91AB81DC
:10223000BC810190F081E02D11966C91099512E01E
:102240008A81181758F4EB81FC81E10FF11D608140
:1022500070E0CE010E9496101F5FF2CFCE01DF9199
:10226000CF911F910C94C410DF91CF911F910895CD
:10227000AF92BF92CF92DF92EF92FF920F931F9394
:10228000CF93DF93EC018B01A42EB22E67ED72E0A9
:10229000C8010E9495226C016FE270E0C8010E94A3
:1022A0008A2201967C01C114D10441F0009731F0DB
:1022B000C81AD90AC394C394CA8208C0F80101900D
:1022C0000020E9F7E01BEF5FEA8378018B819C81B6
:1022D0000E9412210A8110E0C8010E947A209C838A
:1022E0008B83DC01A00FB11F1C92FC01A082B18284
:1022F0004A8150E042505109B7010296DF91CF91D7
:102300001F910F91FF90EF90DF90CF90BF90AF9013
:102310000C947B22DC018D919C91DC01ED91FC9170
:102320000480F581E02D09941F93CF93DF93EC0196
:102330008885813741F08937B9F5CE01DF91CF919A
:102340001F910C94F2108FA998AD892BD1F129A57A
:102350003AA5C901019797FDC90195958795182F51
:1023600099270E947A20482FFC0121E03E2F341B40
:102370003117A0F4DE01A20FB11D18963C913083F5
:1023800051E0520FDE01A50FB11D18965C9160E877
:10239000569F3019112431932E5FE8CFEFA9F8AD85
:1023A000DF91CF911F910994E9ADFAAD309749F0D3
:1023B000AE01475F5F4F69A56150DF91CF911F91DB
:1023C0000994DF91CF911F9108950F931F93CF939D
:1023D000DF93EC018A0188819981DC01ED91FC9108
:1023E0006F70606E0190F081E02D0995B801CE010B
:1023F000DF91CF911F910F910C9496100F931F9323
:10240000CF93DF93EC018A0188819981DC01ED9102
:10241000FC916F7060690190F081E02D09958881D1
:102420009981DC01ED91FC91602F6F770190F08133
:10243000E02D099588819981DC01ED91FC91B8012D
:10244000660F672F661F770B0190F081E02DDF91FB
:10245000CF911F910F910994CF92DF92EF92FF924B
:102460000F931F93CF93DF9300D01F92CDB7DEB7AA
:102470008C01F42E2A833B8369830E94B910D80112
:102480008D919C91DC01ED91FC910190F081E02D0A
:10249000698109952A81E22EC22E3B81D32E8C2D93
:1024A0008E198F1540F4F60161916F0170E0C8013B
:1024B0000E949610F4CFC8010F900F900F90DF91FB
:1024C000CF911F910F91FF90EF90DF90CF900C94E0
:1024D000C4109A01FA0101900020E9F73197E41B3A
:1024E000F50B4E2F0C942C12AB0161E70C94691282
:1024F000DC018D919C91DC01ED91FC910190F081CA
:10250000E02D0994FC01603DA1F028F4603959F0F8
:10251000603C61F00895603E19F0643F69F00895F1
:1025200054A743A7089556A745A7089550AB47A7BA
:10253000089552AB41AB089554AB43AB08956F3F40
:1025400019F4FC0156AB45AB0895FC0152AF41AF05
:102550000895FC0115821682178280E090E0DF0169
:10256000A80FB91F18961C92019680329105B9F7F1
:1025700010A612A611A605A8F6A9E02D309709F01D
:1025800009940895FC011282148213820C94A912FA
:10259000CF93DF93EC0188819981DC01ED91FC916F
:1025A0000680F781E02D099528A52223A1F0873F19
:1025B000910531F418A6CE01DF91CF910C949411BE
:1025C00029A53AA5FE01E20FF31F80872F5F3F4F39
:1025D0003AA729A789C02D81222309F44CC080384D
:1025E00091050CF048C09FEF920F9D83FE01E90F0B
:1025F000F11D8087911178C08E81882309F474C001
:10260000803D79F138F48039B9F0803C91F5EFA53F
:10261000F8A929C0803E19F0843FD9F02AC0EBA563
:10262000FCA5309731F18885698570E0B0E88B9F13
:10263000600D711D11241BC0EDA5FEA53097C9F0DA
:102640008885698570E090E8899F600D711D11246F
:102650000EC0EBA9FCA9309761F0688570E0898510
:1026600007C0E9A9FAA9309721F0688570E08F8149
:1026700009951E8239C0803F91052CF4282F2F70B8
:102680002F83807F9927803E910511F154F4803C7F
:10269000910501F1803D9105E9F08039910521F521
:1026A00017C0843F9105A1F044F4803F9105E1F407
:1026B00081E088A71AA619A617C0893F910571F075
:1026C0008F3F910589F4CE01DF91CF910C94A9122F
:1026D00092E001C091E09D838E8306C084EE94E079
:1026E000DF91CF910C94CF10DF91CF9108958F920D
:1026F0009F92AF92BF92CF92DF92EF92FF921F9381
:10270000CF93DF93EB014A01690161E08DE00E9404
:102710007D1910E0EE24D7FCE094FE2CAA2497FC4F
:10272000A094BA2C812F90E08C179D0794F4C701D8
:10273000B6010E946A1861E08DE00E94B619C501D9
:10274000B4010E946A1860E08DE00E94B6191F5F14
:10275000E9CFDF91CF911F91FF90EF90DF90CF9065
:10276000BF90AF909F908F900895CF93DF93EC012F
:1027700061E08DE00E947D1922ED30E048E250E0FA
:1027800062E070E0CE010E9477136AEF70E080E0B3
:1027900090E00E946A1822ED30E048E250E063E0E9
:1027A00070E0CE010E9477136DE770E080E090E06A
:1027B000DF91CF910C946A18CF93DF93EC0126E060
:1027C0008CE295E00E94CF1A8CE295E09983888391
:1027D000CE010E94B513CE010E94CF10CE01DF9131
:1027E000CF910C94F21084EE94E00C94C212CF932B
:1027F000DF93DC0170E0FB01E855FF4FE491149694
:10280000EC931497842F90E0FC01E855FF4FE4917E
:102810001596EC93159764547F4FFB01C491D0E05B
:10282000CC0FDD1FC652DF4FFE0145915491179624
:102830005C934E931697FC01E454FF4F849190E013
:10284000880F991F80539F4FFC01459154911B960F
:102850005C934E931A97FB016491E62FF0E0EE0F24
:10286000FF1FEC51FF4F8591949119969C938E9385
:102870001897C901253FF1E03F0714F084EF91E07C
:1028800049E3489F9001499F300D1124245E3F4F3A
:102890001D963C932E931C97DF91CF9108950F9333
:1028A0001F93CF93DF93EC01E885F98580819C81AC
:1028B000892B8083EE81FF8190818C818095892393
:1028C000808384E090E00E949218EE81FF818081F5
:1028D0009C81892B80838AE090E00E949218EE818F
:1028E000FF8190818C81809589238083E885F9859B
:1028F00090818C818095892380830E944718605B3A
:10290000794B8F4F9F4F6E877F87888B998BEA8596
:10291000FB8580819D81892359F00E9447180E858F
:102920001F8528893989061717072807390778F777
:10293000EA85FB8580819D81892369F40E9447187F
:102940000E851F8528893989061717072807390733
:1029500078F780E00DC00E9447182C853D85620FF6
:10296000731F811D911D6E877F87888B998B81E0F6
:10297000DF91CF911F910F9108950F931F93CF93E4
:10298000DF93EC010E944F14882389F0EA85FB85D0
:1029900080819D81892371F00E9447180E851F85D3
:1029A00028893989061717072807390778F720E09B
:1029B00030E00CC00E9447182C853D852550310918
:1029C0004E855F85241B350B260F371FC901DF910C
:1029D000CF911F910F910895CF93DF93EC01842F36
:1029E0001D861C861B821A8219821882188E198EE7
:1029F0001A8E1B8E798768874E875F87398B288B65
:102A000061E00E947D1961E088890E947D191B8A1E
:102A10001A8A1D8A1C8A1F8A1E8A82E090E09B8780
:102A20008A87DF91CF910895EF92FF920F931F93C2
:102A3000CF93DF93EC01842F1D861C861B821A82A4
:102A400019821882188E198E1A8E1B8E79876887C4
:102A50004E875F87398B288B1B8B0A8BFD8AEC8A0C
:102A600061E00E947D1961E088890E947D1961E022
:102A70008A890E947D1961E08C890E947D191F8AD4
:102A80001E8A84E090E09B878A87DF91CF911F9117
:102A90000F91FF90EF900895CF92DF92EF92FF9207
:102AA000CF93DF93EC016A017B01288539854427A8
:102AB00037FD4095542F60E077E883E993E00E946A
:102AC0003B20CA01B901A70196010E943B202C833B
:102AD0003D834E835F83DF91CF91FF90EF90DF9036
:102AE000CF9008950F931F93CF93DF93EC018B0149
:102AF0008A859B850297F9F46130710571F02CF499
:102B000061157105C1F460E009C06230710559F0CA
:102B10006330710581F460E007C061E08E850E943A
:102B2000B61961E005C061E08E850E94B61960E0CB
:102B300088890E94B6198A859B850497B9F501306A
:102B40001105B1F04CF40115110581F561E08E8598
:102B50000E94B61960E011C002301105B9F00330CF
:102B6000110521F561E08E850E94B61960E013C061
:102B700060E08E850E94B61961E088890E94B619CE
:102B800061E08A890E94B61960E00DC060E08E8520
:102B90000E94B61961E088890E94B61960E08A89AE
:102BA0000E94B61961E08C890E94B6198A859B85BE
:102BB000059709F073C00A30110508F06FC0F801DD
:102BC000E05CFF4F0C945A2060E08E850E94B6199D
:102BD00061E051C060E08E850E94B61961E088898D
:102BE0000E94B61960E04BC060E08E850E94B61965
:102BF00061E088890E94B61960E08A890E94B6194E
:102C000061E041C060E001C061E08E850E94B619BC
:102C100061E005C061E08E850E94B61960E0888998
:102C20000E94B61960E009C061E08E850E94B61965
:102C300060E088890E94B61961E08A890E94B6190D
:102C400061E00DC061E08E850E94B61960E0888960
:102C50000E94B61961E08A890E94B61960E08C89E9
:102C60000E94B61960E013C061E001C060E08E858B
:102C70000E94B61960E088890E94B61961E08A89CD
:102C80000E94B61960E08C890E94B61961E08E89B5
:102C9000DF91CF911F910F910C94B619DF91CF91D5
:102CA0001F910F9108954F925F926F927F928F9232
:102CB0009F92AF92BF92CF92DF92EF92FF920F93CB
:102CC0001F93CF93DF93EC01CB0177FF04C08827DC
:102CD0009927861B970B6C01161617062CF481E0BA
:102CE00090E09983888304C0672B11F019821882C1
:102CF00004E010E08AE0E82EF12CC114D10409F4BC
:102D00004AC00E944718888C998CAA8CBB8C2B01D6
:102D10003C01481859086A087B088C809D80AE8069
:102D2000BF80481459046A047B0458F3688F798F74
:102D30008A8F9B8F288139818C859D852130310533
:102D400059F401969D878C872885398582179307CA
:102D500071F41D861C860BC0892B21F4888599850A
:102D60009D878C878C859D8501979D878C8781E0C9
:102D7000C81AD1082A853B858C859D85253031056B
:102D800011F4B70101C0B8010E940520BC01CE01B9
:102D90000E947215B2CFDF91CF911F910F91FF90DA
:102DA000EF90DF90CF90BF90AF909F908F907F90EB
:102DB0006F905F904F90089585E090E00895FC013A
:102DC000A281B3812C9195819223878182239923BB
:102DD00061F0882379F08085882321F081859285B0
:102DE000890F8187108612860895811103C081E0C2
:102DF000808708952085211108C0992311F081E072
:102E000003C0882311F08FEF82870895833081F00B
:102E100028F4813099F08230A1F008958730A9F02C
:102E20008830B9F08430D1F4809180008F7D03C068
:102E3000809180008F7780938000089584B58F778C
:102E400002C084B58F7D84BD08958091B0008F77D6
:102E500003C08091B0008F7D8093B00008951F93D0
:102E6000CF93DF93EC01862F142F41E050E0BE0199
:102E70000E94F50141E050E0BE01812FDF91CF912A
:102E80001F910C94F501CF93DF93EC016B874C837A
:102E90002E83421709F475C0483018F4283008F022
:102EA00070C088EF840F863020F42850263060F000
:102EB00068C04E3030F02E3008F463C0443108F062
:102EC00060C0243108F05DC018861986A0912105E4
:102ED000B0912205109729F4D0932205C0932105C3
:102EE0000CC01C968D919C911D97009711F0DC01F0
:102EF000F8CF1D96DC93CE931C971D861C8650E060
:102F0000FA01E454FF4FE491F0E0EE0FFF1FE053AD
:102F1000FF4F859194919B838A83892B09F431C05B
:102F2000FA01E855FF4FE491ED83FA01EC56FF4FAB
:102F3000849181110E9406178E8190E0FC01E85572
:102F4000FF4FE491EF83FC01EC56FF4F8491811118
:102F50000E94061760E08C810E947D1960E08E81DE
:102F60000E947D1961E08C810E94B61961E08E811A
:102F70000E94B6194E816C81CE01DF91CF910C94E5
:102F80002F17DF91CF91089590912105809122050F
:102F900090931F0580932005E92FF82F309769F053
:102FA0008185882331F0F0932005E0931F05CF0140
:102FB00008950484F585E02DF1CF1092200510923C
:102FC0001F0580E090E00895FC01818587FF03C024
:102FD00091E0980F91879185191614F4915091877B
:102FE00008951F920F920FB60F9211242F933F93C3
:102FF0008F939F93AF93BF93809124059091250564
:10300000A0912605B09127053091230523E0230FD9
:103010002D3720F40196A11DB11D05C026E8230F10
:103020000296A11DB11D2093230580932405909342
:103030002505A0932605B09327058091280590913A
:103040002905A0912A05B0912B050196A11DB11D5E
:103050008093280590932905A0932A05B0932B050A
:10306000BF91AF919F918F913F912F910F900FBE84
:103070000F901F9018952FB7F894609124057091C8
:10308000250580912605909127052FBF08953FB70C
:10309000F8948091280590912905A0912A05B09176
:1030A0002B0526B5A89B05C02F3F19F00196A11D41
:1030B000B11D3FBF6627782F892F9A2F620F711D90
:1030C000811D911D42E0660F771F881F991F4A9549
:1030D000D1F70895CF92DF92EF92FF92CF93DF93D3
:1030E0006B017C010E944718EB01C114D104E1047B
:1030F000F10489F00E94D41F0E9447186C1B7D0BBD
:10310000683E734090F381E0C81AD108E108F108E5
:10311000C851DC4FEACFDF91CF91FF90EF90DF9065
:10312000CF9008958230910538F0880F991F880F4D
:10313000991F05970197F1F70895789484B58260F7
:1031400084BD84B5816084BD85B5826085BD85B54B
:10315000816085BDEEE6F0E0808181608083E1E8FA
:10316000F0E0108280818260808380818160808332
:10317000E0E8F0E0808181608083E1EBF0E0808135
:1031800084608083E0EBF0E0808181608083EAE707
:10319000F0E0808184608083808182608083808190
:1031A000816080838081806880831092C10008954F
:1031B0008E3008F08E50877020910E0190E4299F88
:1031C00090011124822B80937C0080917A0080648E
:1031D00080937A0080917A0086FDFCCF8091780000
:1031E0002091790090E0922B08951F93CF93DF9365
:1031F000182FEB0161E00E947D19209711F460E027
:1032000004C0CF3FD10539F461E0812FDF91CF9128
:103210001F910C94B619E12FF0E0EC56FF4FE491AA
:10322000E330F9F048F4E130B9F0E230A1F584B5CB
:10323000806284BDC8BD34C0E730E9F0E83019F1E0
:10324000E43049F580918000806280938000D093C3
:103250008B00C0938A0024C084B5806884BDC7BD3C
:103260001FC080918000806880938000D093890087
:10327000C093880015C08091B00080688093B00032
:10328000C093B3000DC08091B00080628093B00005
:10329000C093B40005C0C038D1050CF0B5CFAFCF96
:1032A000DF91CF911F910895833081F028F4813010
:1032B00099F08230A1F008958730A9F08830B9F0F4
:1032C0008430D1F4809180008F7D03C08091800094
:1032D0008F7780938000089584B58F7702C084B57E
:1032E0008F7D84BD08958091B0008F7703C0809159
:1032F000B0008F7D8093B0000895CF93DF9390E06E
:10330000FC01E855FF4F2491FC01E454FF4F8491E8
:10331000882349F190E0880F991FFC01EC51FF4F81
:10332000A591B49186529F4FFC01C591D4919FB74E
:10333000611108C0F8948C91209582238C93888128
:1033400082230AC0623051F4F8948C91322F309568
:1033500083238C938881822B888304C0F8948C917A
:10336000822B8C939FBFDF91CF9108950F931F9372
:10337000CF93DF931F92CDB7DEB7282F30E0F9014E
:10338000EC56FF4F8491F901E855FF4F1491F90174
:10339000E454FF4F04910023C9F0882321F069838E
:1033A0000E9454196981E02FF0E0EE0FFF1FE652F2
:1033B000FF4FA591B4919FB7F8948C91611103C010
:1033C0001095812301C0812B8C939FBF0F90DF91BB
:1033D000CF911F910F910895FC01818D228D90E076
:1033E000805C9F4F821B91098F7399270895FC0180
:1033F000918D828D981731F0828DE80FF11D858DAA
:1034000090E008958FEF9FEF0895FC01918D828DDC
:10341000981761F0828DDF01A80FB11D5D968C9128
:10342000928D9F5F9F73928F90E008958FEF9FEF33
:10343000089589E89BE1892B49F080E090E0892B91
:1034400029F00E94891B81110C9400000895FC0151
:10345000848DDF01A80FB11DA35ABF4F2C91848D1D
:1034600090E001968F739927848FA689B7892C9352
:10347000A089B1898C9180648C93938D848D9813ED
:1034800006C00288F389E02D80818F7D80830895B6
:10349000CF93DF93EC01888D8823C9F0EA89FB89FB
:1034A000808185FD05C0A889B9898C9186FD0FC0F2
:1034B0000FB607FCF5CF808185FFF2CFA889B989C7
:1034C0008C9185FFEDCFCE010E94271AE7CFDF91C7
:1034D000CF910895CF92DF92FF920F931F93CF93D6
:1034E000DF931F92CDB7DEB76C0181E0D60158960D
:1034F0008C9358975B969C915B975C968C915C97AC
:10350000981307C05096ED91FC915197808185FDED
:103510002EC0F601038D10E00F5F1F4F0F731127B0
:10352000F02EF601848DF81211C00FB607FCF9CF0A
:10353000D6015096ED91FC915197808185FFF1CF96
:10354000C60169830E94271A6981EBCF838DE80F3A
:10355000F11DE35AFF4F6083D6015B960C935B9796
:103560005296ED91FC915397808180620CC0D601F8
:103570005696ED91FC91579760835096ED91FC9192
:10358000519780818064808381E090E00F90DF918B
:10359000CF911F910F91FF90DF90CF900895BF9230
:1035A000CF92DF92EF92FF92CF93DF93EC016A010B
:1035B0007B01B22EE889F98982E08083411581EE92
:1035C000580761057105A1F060E079E08DE390E0B6
:1035D000A70196010E941920215031094109510982
:1035E0005695479537952795211580E1380798F02E
:1035F000E889F989108260E874E88EE190E0A7011B
:1036000096010E941920215031094109510956950E
:10361000479537952795EC85FD853083EE85FF85A9
:103620002083188EEC89FD89B082EA89FB8980812C
:1036300080618083EA89FB89808188608083EA8950
:10364000FB89808180688083EA89FB8980818F7D06
:103650008083DF91CF91FF90EF90DF90CF90BF906C
:1036600008951F920F920FB60F9211242F938F93EC
:103670009F93EF93FF93E0913C05F0913D0580818E
:10368000E0914205F091430582FD12C09081809146
:1036900045058F5F8F7320914605821751F0E091A9
:1036A0004505F0E0E45DFA4F958F8093450501C034
:1036B0008081FF91EF919F918F912F910F900FBE7D
:1036C0000F901F9018951F920F920FB60F92112412
:1036D0002F933F934F935F936F937F938F939F931A
:1036E000AF93BF93EF93FF938CE295E00E94271A6C
:1036F000FF91EF91BF91AF919F918F917F916F91CA
:103700005F914F913F912F910F900FBE0F901F909F
:1037100018958CE295E00E94EC1921E0892B09F4C0
:1037200020E0822F089510922F0510922E0588EE2A
:1037300093E0A0E0B0E08093300590933105A09332
:103740003205B093330586EE92E090932D05809379
:103750002C0585EC90E0909339058093380584EC36
:1037600090E090933B0580933A0580EC90E0909335
:103770003D0580933C0581EC90E090933F0580935C
:103780003E0582EC90E0909341058093400586ECE5
:1037900090E0909343058093420510924505109266
:1037A00046051092470510924805089508950E9415
:1037B0009D180E94D61B0E94BF04C9E1DAE10E9455
:1037C000340A2097E1F30E94191AF9CF0C947A2059
:1037D000CF92DF92EF92FF920F931F93CF93DF93DD
:1037E0006C017A01EB01E60EF71E00E010E0CE1549
:1037F000DF0561F06991D601ED91FC910190F081B6
:10380000E02DC6010995080F191FF1CFC801DF91FE
:10381000CF911F910F91FF90EF90DF90CF9008957F
:103820003F924F925F926F927F928F929F92AF9250
:10383000BF92CF92DF92EF92FF920F931F93CF939D
:10384000DF9300D000D0CDB7DEB78B0129013A015C
:1038500090910F01981721F09F3F09F0DAC104C041
:10386000EEEEF0E0349081C080930F01EEEEF0E0D8
:10387000E491EF3F09F4CDC1E13031F1E23009F4D8
:103880004BC0E11171C014BC15BC94B5926094BDDD
:1038900095B5916095BD282F30E0F901E454FF4FB4
:1038A000E491F0E0EE0FFF1FE652FF4F4591549177
:1038B0005093D9054093D805F901E855FF4F24915D
:1038C0002093D705312C53C01092800010928100B4
:1038D0009091810098609093810090918100916017
:1038E00090938100282F30E0F901E454FF4FE491D8
:1038F000F0E0EE0FFF1FE652FF4F459154915093B9
:10390000D2054093D105F901E855FF4F249120934A
:10391000D005332433942BC01092B0001092B10024
:103920009091B00092609093B0009091B10091603E
:103930009093B100282F30E0F901E454FF4FE49157
:10394000F0E0EE0FFF1FE652FF4F45915491509368
:10395000CB054093CA05F901E855FF4F2491209308
:10396000C90552E0352E03C03E2E37FC52C161E03E
:103970000E947D194801A12CB12C832D8D7F09F067
:10398000C7C060E072E18AE790E0A50194010E945F
:103990003B2029833A834B835C8369017A0181E070
:1039A000C81AD108E108F1089FEFC916D104E10453
:1039B000F10409F008F49AC060E472E48FE090E04A
:1039C000A50194010E943B2069017A01E1E0CE1A31
:1039D000D108E108F108F2E03F1219C08FEFC816D4
:1039E000D104E104F10409F008F48AC060E970ED43
:1039F00083E090E0A50194010E943B2069017A01D7
:103A000091E0C91AD108E108F10883E001C082E021
:103A1000EFEFCE16D104E104F10409F008F467C019
:103A200068E478EE81E090E0A50194010E943B20DB
:103A300069017A01F1E0CF1AD108E108F1083320D9
:103A4000E1F082E038121BC09FEFC916D104E104F7
:103A5000F10409F008F4DBC064E274EF80E090E068
:103A6000A50194010E943B2069017A01E1E0CE1A90
:103A7000D108E108F10885E003C083E001C084E0DB
:103A8000FFEFCF16D104E104F10489F180F162E186
:103A90007AE780E090E0A50194010E943B20690153
:103AA0007A0181E0C81AD108E108F108311002C09A
:103AB00084E001C086E09FEFC916D104E104F1045F
:103AC000B1F0A8F0C980DA80EB80FC809AE0F59430
:103AD000E794D794C7949A95D1F7E1E0CE1AD1082C
:103AE000E108F108332031F087E00BC081E033209A
:103AF00011F007C085E095B5987F982B95BD38C02B
:103B000082E09091B100987F982B9093B10030C0E3
:103B100060E072E18AE790E0A50194010E943B20F9
:103B200069017A01F1E0CF1AD108E108F108C11466
:103B3000D10481E0E806F10488F068E478EE81E0E1
:103B400090E0A50194010E943B2069017A0191E077
:103B5000C91AD108E108F10893E001C091E0E1E061
:103B60003E1206C080918100887F892B809381005E
:103B7000411451046104710471F0D801AA0FBB1FF4
:103B8000A30192010E94602028EE33E040E050E063
:103B90000E94192003C02FEF3FEFA901F1E03F166B
:103BA000A1F082E0381619F1311033C0C7BC209360
:103BB000DA053093DB054093DC055093DD058091F9
:103BC0006E00826080936E0024C0D0928900C09203
:103BD00088002093D3053093D4054093D5055093A6
:103BE000D60580916F00826080936F0012C0C092F2
:103BF000B3002093CC053093CD054093CE05509370
:103C0000CF058091700082608093700002C084E0D4
:103C100078CF0F900F900F900F90DF91CF911F9161
:103C20000F91FF90EF90DF90CF90BF90AF909F905B
:103C30008F907F906F905F904F903F90089581306C
:103C400039F018F0823051F0089510926E00089506
:103C500080916F008D7F80936F0008958091700038
:103C60008D7F8093700081E08093B0008091B100DF
:103C7000887F84608093B1001092B3000895CF9341
:103C8000C82F80910F018C1307C0EEEEF0E08491F5
:103C90009FEF90930F0101C08FEF0E941F1E60E005
:103CA0008C2FCF910C94B6191F920F920FB60F92D2
:103CB00011242F933F934F935F936F937F938F9331
:103CC0009F93AF93BF93EF93FF938091CC05909117
:103CD000CD05A091CE05B091CF05892B8A2B8B2BDA
:103CE00051F19091C905E091CA05F091CB05808111
:103CF000892780838091CC059091CD05A091CE0538
:103D0000B091CF05181619061A061B06C4F4809147
:103D1000CC059091CD05A091CE05B091CF0501972E
:103D2000A109B1098093CC059093CD05A093CE0550
:103D3000B093CF0504C080910F010E943F1EFF91F8
:103D4000EF91BF91AF919F918F917F916F915F9113
:103D50004F913F912F910F900FBE0F901F9018958C
:103D60004F925F926F927F92AF92BF92CF92DF920B
:103D7000EF92FF920F931F93CF93DF93CDB7DEB7F0
:103D800029013A01621B730B840B950B29893A892F
:103D90004B895C892A193B094C095D09298B3A8BAF
:103DA0004B8B5C8B9B01AC0169897A898B899C89DF
:103DB0000E94D51FE418F50806091709A801970104
:103DC0000E943B202A0D3B1D4C1D5D1DCA01B901FF
:103DD000DF91CF911F910F91FF90EF90DF90CF90E7
:103DE000BF90AF907F906F905F904F900895FC01CF
:103DF000808191810C941221CF93DF93EC01888113
:103E00009981009711F00E941221198218821D8257
:103E10001C821B821A82DF91CF9108950F931F930A
:103E2000CF93DF93EC018B016F5F7F4F8881998186
:103E30000E94A121009731F0998388831B830A8314
:103E400081E001C080E0DF91CF911F910F91089533
:103E5000CF93DF93EC0188819981892B29F08A81A6
:103E60009B818617970760F4CE010E940E1F88235E
:103E700041F08C819D81892B19F4E881F9811082B0
:103E800081E0DF91CF910895EF92FF920F931F93FE
:103E9000CF93DF93EC017B018A01BA010E94281FB6
:103EA000811104C0CE010E94FC1E07C01D830C833B
:103EB000B701888199810E947422CE01DF91CF9150
:103EC0001F910F91FF90EF900895CF93DF93EC0136
:103ED0006115710561F0FB0101900020E9F7AF0168
:103EE00041505109461B570B0E94441F02C00E94BB
:103EF000FC1ECE01DF91CF9108950F931F93CF93B6
:103F0000DF93CDB7DEB7A2970FB6F894DEBF0FBE32
:103F1000CDBF8C01CB01BA01F8011182108213824E
:103F200012821582148230E0AE014F5F5F4F0E9413
:103F3000AF22BE016F5F7F4FC8010E94651FA2962E
:103F40000FB6F894DEBF0FBECDBFDF91CF911F91AA
:103F50000F9108950F931F93CF93DF93EB014115BA
:103F60005105E9F02097D9F0FC016481758126178D
:103F70003707A0F4621B730B8A0101501109601707
:103F8000710708F48B01FC0160817181620F731F5E
:103F9000A801CE010E947B22C00FD11F1882DF91A1
:103FA000CF911F910F9108950895DB018F939F93F7
:103FB0000E946020BF91AF91A29F800D911DA39F91
:103FC000900DB29F900D11240895991B79E004C0C3
:103FD000991F961708F0961B881F7A95C9F7809548
:103FE0000895AA1BBB1B51E107C0AA1FBB1FA61740
:103FF000B70710F0A61BB70B881F991F5A95A9F792
:1040000080959095BC01CD01089597FB072E16F47D
:10401000009407D077FD09D00E94F11F07FC05D05E
:104020003EF4909581959F4F0895709561957F4FCF
:104030000895A1E21A2EAA1BBB1BFD010DC0AA1FE9
:10404000BB1FEE1FFF1FA217B307E407F50720F001
:10405000A21BB30BE40BF50B661F771F881F991F7C
:104060001A9469F760957095809590959B01AC01C5
:10407000BD01CF010895052E97FB1EF400940E9408
:10408000522057FD07D00E94192007FC03D04EF4A0
:104090000C94522050954095309521953F4F4F4FAD
:1040A0005F4F089590958095709561957F4F8F4FE4
:1040B0009F4F0895EE0FFF1F0590F491E02D099496
:1040C0000E946B20A59F900DB49F900DA49F800D22
:1040D000911D11240895A29FB001B39FC001A39F19
:1040E000700D811D1124911DB29F700D811D112431
:1040F000911D0895CF93DF938230910510F482E0F3
:1041000090E0E091E005F091E10520E030E0A0E0F2
:10411000B0E0309739F14081518148175907B8F024
:104120004817590771F482819381109729F01396EB
:104130009C938E9312972CC09093E1058093E00599
:1041400027C02115310531F04217530718F0A90196
:10415000DB0101C0EF019A01BD01DF010280F381A3
:10416000E02DD7CF21153105F9F0281B390B24306C
:10417000310580F48A819B816115710521F0FB0175
:104180009383828304C09093E1058093E005FE0150
:10419000329644C0FE01E20FF31F819391932250A7
:1041A0003109398328833AC02091DE053091DF053B
:1041B000232B41F420910201309103013093DF055C
:1041C0002093DE0520910001309101012115310578
:1041D00041F42DB73EB74091040150910501241BD5
:1041E000350BE091DE05F091DF05E217F307A0F44F
:1041F0002E1B3F0B2817390778F0AC014E5F5F4F3D
:104200002417350748F04E0F5F1F5093DF0540938A
:10421000DE058193919302C0E0E0F0E0CF01DF91F1
:10422000CF910895CF93DF93009709F487C0FC01E5
:10423000329713821282C091E005D091E105209758
:1042400081F420813181280F391F8091DE05909102
:10425000DF058217930779F5F093DF05E093DE051C
:104260006DC0DE0120E030E0AE17BF0750F41296BB
:104270004D915C9113979D014115510509F1DA01AA
:10428000F3CFB383A28340815181840F951F8A1796
:104290009B0771F48D919C911197840F951F029645
:1042A0009183808312968D919C911397938382833F
:1042B0002115310529F4F093E105E093E0053EC0B6
:1042C000D9011396FC93EE9312974D915D91A40F33
:1042D000B51FEA17FB0779F480819181840F951F40
:1042E0000296D90111969C938E93828193811396A5
:1042F0009C938E931297E0E0F0E08A819B81009777
:1043000019F0FE01EC01F9CFCE0102962881398126
:10431000820F931F2091DE053091DF0528173907A2
:1043200069F4309729F41092E1051092E00502C07B
:1043300013821282D093DF05C093DE05DF91CF9107
:104340000895A0E0B0E0E7EAF1E20C94FF22EC016E
:10435000CB01209719F40E947A20B8C0FE01E60F25
:10436000F71F9E0122503109E217F30708F4ACC091
:10437000D9010D911C91119706171707B8F0053058
:10438000110508F49FC0A80144505109461757076A
:1043900008F498C002501109061B170B01931193E2
:1043A0006D937C93CF010E9412218CC05B01A01AF7
:1043B000B10A4E01800E911EA091E005B091E10579
:1043C000612C712C60E070E0109709F449C0A815C9
:1043D000B905C9F5ED90FC901197670142E0C40E54
:1043E000D11CCA14DB0478F147018A189B086401C8
:1043F00042E0C40ED11C1296BC9012971396AC9159
:10440000B5E0CB16D10440F0B282A38391828082C2
:10441000D9018D939C9309C00E5F1F4F0E0D1F1D78
:10442000F90111830083EB2DFA2F6115710531F02D
:10443000DB011396FC93EE93129744C0F093E105D1
:10444000E093E0053FC06D917C9111976616770669
:1044500008F43B01BD0112960D90BC91A02DB4CF84
:104460006091DE057091DF0568157905E9F468163D
:104470007906D0F440910001509101014115510598
:1044800041F44DB75EB76091040170910501461B80
:10449000570BE417F507C0F4F093DF05E093DE0552
:1044A000F901918380830EC00E947A207C010097DD
:1044B00059F0A801BE010E946B22CE010E94122178
:1044C000C70104C0CE0102C080E090E0CDB7DEB7E6
:1044D000EEE00C941B23FB01DC0102C001900D9265
:1044E00041505040D8F70895FB01DC0101900D9236
:1044F0000020E1F70895FB01DC014150504048F0F5
:1045000001900D920020C9F701C01D92415050400A
:10451000E0F70895FC0181E090E00190061609F4AF
:10452000CF010020D1F701970895FB015191552348
:10453000A9F0BF01DC014D9145174111E1F759F494
:10454000CD010190002049F04D9140154111C9F372
:10455000FB014111EFCF81E090E0019708952532F2
:10456000310520F4223010F00C94BA22FA011082A6
:10457000CA010895BB272A3051F4992342F4BDE2C1
:1045800090958095709561957F4F8F4F9F4F0C94BC
:10459000CA22BB27FA01A62F621771058105910572
:1045A000330B30FB66F0AA27660F771F881F991F11
:1045B000AA1FA21710F0A21B63953850A9F7A05D9F
:1045C000AA3308F0A95DA19336F7B111B193108217
:1045D000CA010C94EB22DC01FC01672F7191772357
:1045E000E1F7329704C07C916D9370836291AE17AE
:1045F000BF07C8F308952F923F924F925F926F9238
:104600007F928F929F92AF92BF92CF92DF92EF9262
:10461000FF920F931F93CF93DF93CDB7DEB7CA1BE3
:10462000DB0B0FB6F894DEBF0FBECDBF09942A880E
:10463000398848885F846E847D848C849B84AA84B6
:10464000B984C884DF80EE80FD800C811B81AA8143
:10465000B981CE0FD11D0FB6F894DEBF0FBECDBF0E
:08466000ED010895F894FFCF6D
:104668000000E20580000100000021FF130001FFA7
:10467800556E6B6E6F776E2070696E206D6F646516
:10468800004669726D617461506C75732E696E6F46
:10469800004932432052656164204572726F723A54
:1046A80020546F6F206D616E792062797465732074
:1046B80072656365697665640049324320526561B5
:1046C80064204572726F723A20546F6F2066657766
:1046D8002062797465732072656365697665640024
:1046E80031302D6269742061646472657373696E18
:1046F80067206D6F6465206973206E6F742079651B
:104708007420737570706F7274656400746F6F20B5
:104718006D616E7920717565726965730050494ED7
:10472800475F434F4E464947204572726F723A20A1
:104738004578636565646564206E756D6265722091
:104748006F6620737570706F727465642070696E1F
:104758006720646576696365730053544550504516
:104768005220434F4E464947204572726F723A2095
:1047780057726F6E67204E756D626572206F662086
:10478800617267756D656E74730061726763203D51
:10479800200053544550504552204F5045524154E3
:1047A80045204572726F723A204D4F544F52204E39
:1047B8004F5420434F4E46494755524544005354A1
:1047C8004550504552204649524D57415245205672
:1047D800455253494F4E204572726F723A204E4FE0
:1047E800204D4F544F525320434F4E464947555240
:1047F8004544005354455050455220434F4E464976
:1048080047204572726F723A20554E4B4E4F574EA5
:10481800205354455050455220434F4D4D414E442E
:1048280000F303E903DF03000000000E0EE10DB6FC
:104838000DBE0DD10DE00D2E63707000000000005C
:10484800DF16000000006A1AE81BEC19051AF719B0
:02485800481AFC
:00000001FF
