:100000000C945E000C9486000C9486000C94860080
:100010000C9486000C9486000C9486000C94860048
:100020000C9486000C9486000C9486000C94860038
:100030000C9486000C9486000C9486000C94860028
:100040000C947F020C9486000C946B050C949D0517
:100050000C9486000C9486000C9486000C94860008
:100060000C9486000C948600000000080002010039
:100070000003040700000000000000000102040863
:100080001020408001020408102001020408102002
:10009000040404040404040402020202020203032E
:1000A0000303030300000000250028002B000000CC
:1000B0000000240027002A006E02CD0511241FBE77
:1000C000CFEFD8E0DEBFCDBF11E0A0E0B1E0E6EEBB
:1000D000FCE002C005900D92A031B107D9F722E0F3
:1000E000A0E1B1E001C01D92AE30B207E1F710E02F
:1000F000CCEBD0E004C02297FE010E946D06C83B05
:10010000D107C9F70E9411060C9471060C940000E7
:100110008F929F92AF92BF92CF92DF92EF92FF9217
:100120000F931F93CF93DF9300D0CDB7DEB78C0131
:1001300049832A83660F771FF801EA5AFF4FE08050
:10014000F180EE0CFF1CF801CF01801B910B8E1586
:100150009F0514F41192F8CF8981F801E60FF71F7B
:1001600081838A818083680184E5C80ED11C60E0A8
:10017000F60180810E94B1035801F2E5AF0EB11C77
:10018000480180E5880E911C1E141F047CF4E1E0F8
:10019000EE1AF108F801EE0DFF1D208141E0F50196
:1001A0006081F40180810E94E703EECF61E0F601F7
:1001B00080810F900F90DF91CF911F910F91FF9051
:1001C000EF90DF90CF90BF90AF909F908F900C9466
:1001D000B10377FD10C0FC01EA5AFF4F2081318145
:1001E0006217730744F4442311F020E001C021E0BA
:1001F0004CE00C948800089577FD0FC0FC01EA5A8A
:10020000FF4F20813181621773073CF4483051055C
:1002100020F4242F4BE00C948800089577FD0FC044
:10022000FC01EA5AFF4F20813181621773073CF4C9
:100230004031510520F4242F4AE00C9488000895A1
:10024000CF92DF92EF92FF920F931F93CF93DF93A2
:100250007C018B0177FD21C0FC01EA5AFF4F8081B0
:10026000918168177907CCF46B0123E0CC0CDD1C7D
:100270002A95E1F7C0E0D0E0CE0CDF1CF601EC0FD0
:10028000FD1F108A4C2F4F5F20E0B801C7010E946C
:1002900088002196C830D10589F7DF91CF911F9151
:1002A0000F91FF90EF90DF90CF9008954F925F9263
:1002B0007F928F929F92AF92BF92CF92DF92EF92F6
:1002C000FF920F931F93CF93DF931F92CDB7DEB7AB
:1002D0002C01762E7C0180E5E80EF11CF70160838D
:1002E00071834201F2E58F0E911CF401518340832A
:1002F0006201F4E5CF0ED11CF60131832083C801E1
:100300000197089710F008E010E05201F6E5AF0EF3
:10031000B11CF5011183008361E0872D79830E9470
:10032000780361E0F40180810E94780361E0F601C6
:1003300080810E94780361E0F60180810E94B10310
:10034000F70170827981718380E090E0F201E80F1B
:10035000F91F108A019680349105C1F700E010E082
:10036000F5018081918108171907F4F420E04FE02E
:10037000B801C2010E94880047E050E0B801C20104
:100380000E94FC0020E049E0B801C2010E94880000
:10039000B801C2010E94200141E0B801C2010E94DF
:1003A000E9000F5F1F4FDCCF0F90DF91CF911F91BE
:1003B0000F91FF90EF90DF90CF90BF90AF909F9004
:1003C0008F907F905F904F90089577FD1AC0FC0149
:1003D000EA5AFF4F0190F081E02D6E177F078CF4F1
:1003E0004830510570F4FB01A3E0EE0FFF1FAA9502
:1003F000E1F7E80FF91FE40FF51F208B4F5F0C9416
:100400008800089526E040E056E960E070E081E76A
:1004100091E00E94090540E060E070E080E191E039
:100420000E94E90044E050E060E070E080E191E08B
:100430000E940E0160E070E080E191E00C942001E8
:1004400021E040E050E060E070E080E191E00E9457
:10045000E50122E041E050E060E070E080E191E001
:100460000E94E50124E042E050E060E070E080E1BD
:1004700091E00E94E50128E043E050E060E070E098
:1004800080E191E00E94E50120E144E050E060E07D
:1004900070E080E191E00E94E50120E245E050E05B
:1004A00060E070E080E191E00E94E50120E446E038
:1004B00050E060E070E080E191E00E94E50120E81A
:1004C00047E050E060E070E080E191E00E94E501EB
:1004D00068E873E180E090E00C94EC020F931F93C6
:1004E00001E010E02AE030E04BE050E06CE070E02A
:1004F00080E191E00E9456011F910F9108951F9293
:100500000F920FB60F9211242F933F938F939F93C7
:10051000AF93BF938091690190916A01A0916B01A3
:10052000B0916C013091680123E0230F2D3720F446
:100530000196A11DB11D05C026E8230F0296A11D3D
:10054000B11D209368018093690190936A01A09383
:100550006B01B0936C0180916D0190916E01A0913F
:100560006F01B09170010196A11DB11D80936D01C5
:1005700090936E01A0936F01B0937001BF91AF9102
:100580009F918F913F912F910F900FBE0F901F90D1
:1005900018953FB7F89480916D0190916E01A091EC
:1005A0006F01B091700126B5A89B05C02F3F19F0CF
:1005B0000196A11DB11D3FBF6627782F892F9A2F65
:1005C000620F711D811D911D42E0660F771F881F0C
:1005D000991F4A95D1F70895CF92DF92EF92FF923B
:1005E000CF93DF936B017C010E94C902EB01C11420
:1005F000D104E104F10489F00E9448060E94C90276
:100600006C1B7D0B683E734090F381E0C81AD108E3
:10061000E108F108C851DC4FEACFDF91CF91FF909C
:10062000EF90DF90CF900895789484B5826084BD78
:1006300084B5816084BD85B5826085BD85B58160E6
:1006400085BDEEE6F0E0808181608083E1E8F0E046
:100650001082808182608083808181608083E0E875
:10066000F0E0808181608083E1EBF0E08081846054
:100670008083E0EBF0E0808181608083EAE7F0E056
:1006800080818460808380818260808380818160BA
:1006900080838081806880831092C10008958330B8
:1006A00081F028F4813099F08230A1F008958730EC
:1006B000A9F08830B9F08430D1F4809180008F7D2A
:1006C00003C0809180008F7780938000089584B567
:1006D0008F7702C084B58F7D84BD08958091B0006E
:1006E0008F7703C08091B0008F7D8093B000089514
:1006F000CF93DF9390E0FC01E458FF4F2491FC017D
:10070000E057FF4F8491882349F190E0880F991FAB
:10071000FC01E255FF4FA591B4918C559F4FFC0110
:10072000C591D4919FB7611108C0F8948C91209520
:1007300082238C93888182230AC0623051F4F8941A
:100740008C91322F309583238C938881822B8883E0
:1007500004C0F8948C91822B8C939FBFDF91CF9132
:1007600008950F931F93CF93DF931F92CDB7DEB7FA
:10077000282F30E0F901E859FF4F8491F901E4583E
:10078000FF4F1491F901E057FF4F04910023C9F086
:10079000882321F069830E944F036981E02FF0E0F4
:1007A000EE0FFF1FEC55FF4FA591B4919FB7F89442
:1007B0008C91611103C01095812301C0812B8C9312
:1007C0009FBF0F90DF91CF911F910F910895BF921E
:1007D000CF92DF92EF92FF920F931F93CF93DF930D
:1007E000C82ED62EB42EC7E0D0E0022F10E087E04E
:1007F000E82EF12CB1100AC0F701EC1BFD0BB8017B
:1008000002C075956795EA95E2F707C0B8010C2E0E
:1008100002C0759567950A94E2F7617077278C2D71
:100820000E94B10361E08D2D0E94B10360E08D2D27
:100830000E94B1032197F0F6DF91CF911F910F91A4
:10084000FF90EF90DF90CF90BF900895FC01818DD5
:10085000228D90E0805C9F4F821B91098F739927B6
:100860000895FC01918D828D981731F0828DE80FEB
:10087000F11D858D90E008958FEF9FEF0895FC01A5
:10088000918D828D981761F0828DDF01A80FB11DC7
:100890005D968C91928D9F5F9F73928F90E00895EB
:1008A0008FEF9FEF089583EC95E0892B49F080E06E
:1008B00090E0892B29F00E94C30581110C9400005F
:1008C0000895FC01848DDF01A80FB11DA35ABF4F0D
:1008D0002C91848D90E001968F739927848FA6893F
:1008E000B7892C93A089B1898C9180648C93938D66
:1008F000848D981306C00288F389E02D80818F7D56
:1009000080830895CF93DF93EC01888D8823C9F00D
:10091000EA89FB89808185FD05C0A889B9898C9108
:1009200086FD0FC00FB607FCF5CF808185FFF2CFA3
:10093000A889B9898C9185FFEDCFCE010E94610411
:10094000E7CFDF91CF910895CF92DF92FF920F937F
:100950001F93CF93DF931F92CDB7DEB76C0181E079
:10096000D60158968C9358975B969C915B975C96B2
:100970008C915C97981307C05096ED91FC9151971C
:10098000808185FD2EC0F601038D10E00F5F1F4FA3
:100990000F731127F02EF601848DF81211C00FB6D7
:1009A00007FCF9CFD6015096ED91FC9151978081CB
:1009B00085FFF1CFC60169830E9461046981EBCF95
:1009C000838DE80FF11DE35AFF4F6083D6015B96DC
:1009D0000C935B975296ED91FC91539780818062C6
:1009E0000CC0D6015696ED91FC91579760835096B6
:1009F000ED91FC91519780818064808381E090E04B
:100A00000F90DF91CF911F910F91FF90DF90CF90CA
:100A10000895BF92CF92DF92EF92FF92CF93DF9330
:100A2000EC016A017B01B22EE889F98982E08083BA
:100A3000411581EE580761057105A1F060E079E08C
:100A40008DE390E0A70196010E94490621503109EB
:100A5000410951095695479537952795211580E10C
:100A6000380798F0E889F989108260E874E88EE127
:100A700090E0A70196010E944906215031094109E1
:100A800051095695479537952795EC85FD85308317
:100A9000EE85FF852083188EEC89FD89B082EA8976
:100AA000FB89808180618083EA89FB8980818860FD
:100AB0008083EA89FB89808180688083EA89FB8959
:100AC00080818F7D8083DF91CF91FF90EF90DF90C9
:100AD000CF90BF9008951F920F920FB60F921124DE
:100AE0002F938F939F93EF93FF93E0918101F09168
:100AF00082018081E0918701F091880182FD12C01E
:100B0000908180918A018F5F8F7320918B01821772
:100B100051F0E0918A01F0E0EF58FE4F958F8093FD
:100B20008A0101C08081FF91EF919F918F912F9158
:100B30000F900FBE0F901F9018951F920F920FB637
:100B40000F9211242F933F934F935F936F937F9353
:100B50008F939F93AF93BF93EF93FF9381E791E0C0
:100B60000E946104FF91EF91BF91AF919F918F918E
:100B70007F916F915F914F913F912F910F900FBE99
:100B80000F901F90189581E791E00E94260421E0C4
:100B9000892B09F420E0822F08951092740110929D
:100BA000730188EE93E0A0E0B0E08093750190932C
:100BB0007601A0937701B093780184E091E090935F
:100BC00072018093710185EC90E090937E01809397
:100BD0007D0184EC90E09093800180937F0180EC14
:100BE00090E0909382018093810181EC90E090935A
:100BF00084018093830182EC90E09093860180933E
:100C0000850186EC90E09093880180938701109293
:100C10008A0110928B0110928C0110928D0108951F
:100C200008950E9414030E9410060E940202C3E568
:100C3000D4E00E9420022097E1F30E945304F9CFF0
:100C4000CF92DF92EF92FF920F931F93CF93DF9398
:100C50006C017A01EB01E60EF71E00E010E0CE1504
:100C6000DF0561F06991D601ED91FC910190F08171
:100C7000E02DC6010995080F191FF1CFC801DF91BA
:100C8000CF911F910F91FF90EF90DF90CF9008953B
:100C90000895A1E21A2EAA1BBB1BFD010DC0AA1FBD
:100CA000BB1FEE1FFF1FA217B307E407F50720F0D5
:100CB000A21BB30BE40BF50B661F771F881F991F50
:100CC0001A9469F760957095809590959B01AC0199
:100CD000BD01CF010895EE0FFF1F0590F491E02DA7
:060CE0000994F894FFCF17
:100CE60000000000A404200626043F043104820408
:00000001FF
